:100000000C942A000C943F000C943F000C943F0089
:100010000C943F000C943F000C943F000C943F0064
:100020000C943F000C943F000C943F000C943F0054
:100030000C943F000C943F000C943F000C943F0044
:100040000C943F000C943F000C943F000C943F0034
:100050000C943F0011241FBECFE5D8E0DEBFCDBF1A
:1000600010E0A0E6B0E0EEE4F4E002C005900D92EE
:10007000A037B107D9F70E9441000C9425020C94D7
:1000800000000E94C10180E690E00E941202FFCFB2
:10009000683008F07BC0843008F07AC0423008F045
:1000A00079C0813011F130F08230D1F1833009F420
:1000B00052C072C0413061F42AB381E090E002C0C6
:1000C000880F991F6A95E2F7822B8ABB80E008951A
:1000D0002AB381E090E002C0880F991F6A95E2F789
:1000E000809582238ABB80E00895413061F427B374
:1000F00081E090E002C0880F991F6A95E2F7822B99
:1001000087BB80E0089527B381E090E002C0880FAC
:10011000991F6A95E2F78095822387BB80E0089556
:10012000413061F424B381E090E002C0880F991F50
:100130006A95E2F7822B84BB80E0089524B381E0C6
:1001400090E002C0880F991F6A95E2F7809582239C
:1001500084BB80E00895413061F421B381E090E0F8
:1001600002C0880F991F6A95E2F7822B81BB80E05D
:10017000089521B381E090E002C0880F991F6A952D
:10018000E2F78095822381BB80E0089581E00895A5
:1001900082E0089583E0089580E00895683008F0D3
:1001A0007BC0843008F07AC0423008F079C08130DA
:1001B00011F130F08230D1F1833009F452C072C0B5
:1001C000413061F42BB381E090E002C0880F991FA9
:1001D0006A95E2F7822B8BBB80E008952BB381E018
:1001E00090E002C0880F991F6A95E2F780958223FC
:1001F0008BBB80E00895413061F428B381E090E04A
:1002000002C0880F991F6A95E2F7822B88BB80E0B5
:10021000089528B381E090E002C0880F991F6A9585
:10022000E2F78095822388BB80E00895413061F435
:1002300025B381E090E002C0880F991F6A95E2F72C
:10024000822B85BB80E0089525B381E090E002C059
:10025000880F991F6A95E2F78095822385BB80E01D
:100260000895413061F422B381E090E002C0880F2C
:10027000991F6A95E2F7822B82BB80E0089522B332
:1002800081E090E002C0880F991F6A95E2F780959F
:10029000822382BB80E0089581E0089582E0089582
:1002A00083E0089580E008958430C0F49FEF960FB6
:1002B0009E3FB0F0813049F028F0823049F0833021
:1002C00051F010C06ABB80E0089567BB80E00895DC
:1002D00064BB80E0089561BB80E0089582E00895EA
:1002E00083E0089580E008958430B0F46230B0F483
:1002F000813049F028F0823049F0833051F010C04D
:100300006BBB80E0089568BB80E0089565BB80E02A
:10031000089562BB80E0089582E0089583E0089527
:1003200080E00895CF93C82F40E064E083E00E940E
:10033000CE0089EF90E00197F1F700C0000041E0A6
:1003400065E083E00E94CE0089EF90E00197F1F72D
:1003500000C000006C2F82E00E94740189EF90E0E1
:100360000197F1F700C0000040E065E083E00E94E3
:10037000CE0089EF90E00197F1F700C00000CF9127
:10038000089541E064E083E00E94480041E065E0B8
:1003900083E00E9448006FEF82E00E9454016FEFFB
:1003A00081E00E94540187E893E10197F1F700C0D2
:1003B000000088E20E9492018CE00E94920181E09C
:1003C0000E9492010895CF93C82F41E064E083E03A
:1003D0000E94CE0089EF90E00197F1F700C0000085
:1003E00041E065E083E00E94CE0089EF90E0019754
:1003F000F1F700C000006C2F82E00E94740189EFC9
:1004000090E00197F1F700C0000040E065E083E074
:100410000E94CE0089EF90E00197F1F700C0000044
:10042000CF9108950F931F93CF938C01C0E003C029
:100430000E94E301CF5FF801EC0FF11D8081811173
:0E044000F7CFCF911F910F910895F894FFCF41
:10044E00454E47204D6F686420546172656B000005
:00000001FF
