:100000000C942A000C943F000C943F000C943F0089
:100010000C943F000C943F000C943F000C943F0064
:100020000C943F000C943F000C943F000C943F0054
:100030000C943F000C943F000C943F000C943F0044
:100040000C943F000C943F000C943F000C943F0034
:100050000C943F0011241FBECFE5D8E0DEBFCDBF1A
:1000600010E0A0E6B0E0EAECF6E002C005900D92E8
:10007000AE36B107D9F70E9441000C9463030C948B
:1000800000000E94DF000E94DA0180E690E00E94FA
:10009000920180E00E940502EC016CE080E00E9489
:1000A000A501C83E83E0D80720F0CE010E94BC0124
:1000B000F0CFCE010E94BC0180E20E941301E9CF83
:1000C000CF93C82F40E061E080E00E949D0289EF5D
:1000D00090E00197F1F700C0000041E062E080E0AD
:1000E0000E949D0289EF90E00197F1F700C00000A7
:1000F000C4FB442740F963E080E00E949D02C5FBF9
:10010000442740F964E080E00E949D02C6FB44273A
:1001100040F965E080E00E949D024C2F441F442777
:10012000441F66E080E00E949D0289EF90E0019705
:10013000F1F700C0000040E062E080E00E949D0214
:1001400089EF90E00197F1F700C0000041E062E024
:1001500080E00E949D0289EF90E00197F1F700C0D6
:1001600000004C2F417063E080E00E949D02C1FBC3
:10017000442740F964E080E00E949D02C2FB4427CE
:1001800040F965E080E00E949D02C3FB442740F9EE
:1001900066E080E00E949D0289EF90E00197F1F710
:1001A00000C0000040E062E080E00E949D0289EF14
:1001B00090E00197F1F700C00000CF91089541E071
:1001C00061E080E00E94170241E062E080E00E946E
:1001D000170287E893E10197F1F700C0000041E0C2
:1001E00063E080E00E94170241E064E080E00E944A
:1001F000170241E065E080E00E94170241E066E0FE
:1002000080E00E94170283E30E94600082E30E9464
:10021000600088E20E9460008CE00E94600081E043
:100220000E9460000895CF93C82F41E061E080E014
:100230000E949D0289EF90E00197F1F700C0000055
:1002400041E062E080E00E949D0289EF90E001972A
:10025000F1F700C00000C4FB442740F963E080E0F0
:100260000E949D02C5FB442740F964E080E00E94A3
:100270009D02C6FB442740F965E080E00E949D0294
:100280004C2F441F4427441F66E080E00E949D02DB
:1002900089EF90E00197F1F700C0000040E062E0D4
:1002A00080E00E949D0289EF90E00197F1F700C085
:1002B000000041E062E080E00E949D0289EF90E052
:1002C0000197F1F700C000004C2F417063E080E01F
:1002D0000E949D02C1FB442740F964E080E00E9437
:1002E0009D02C2FB442740F965E080E00E949D0228
:1002F000C3FB442740F966E080E00E949D0289EF3D
:1003000090E00197F1F700C0000040E062E080E07B
:100310000E949D0289EF90E00197F1F700C0000074
:10032000CF9108950F931F93CF938C01C0E003C02A
:100330000E941301CF5FF801EC0FF11D8081811144
:10034000F7CFCF911F910F910895813031F070F068
:10035000823031F0833039F00AC090E4960F07C044
:1003600090E1960F04C090E5960F01C0962F892F5B
:1003700080680E9460000895CF93DF93CDB7DEB709
:1003800060970FB6F894DEBF0FBECDBF4AE050E0D5
:10039000BE016F5F7F4F0E942303CE0101960E9432
:1003A000920160960FB6F894DEBF0FBECDBFDF910D
:1003B000CF91089587B18F7787B987B1806487B966
:1003C00087B18F7D87B987B18F7E87B987B1877FE6
:1003D00087B987B18B7F87B987B18D7F87B987B19F
:1003E0008E7F87B986B1806886B986B1877F86B9E6
:1003F00086B18F7D86B986B1846086B986B1826008
:1004000086B986B1816086B90895877097B1907E6C
:1004100097B997B1892B87B986B1806486B9349B27
:10042000FECF86B1806186B984B195B108956830F8
:1004300008F07BC0843008F07AC0423008F079C000
:10044000813011F130F08230D1F1833009F452C0A3
:1004500072C0413061F42AB381E090E002C0880F9D
:10046000991F6A95E2F7822B8ABB80E008952AB330
:1004700081E090E002C0880F991F6A95E2F78095AD
:1004800082238ABB80E00895413061F427B381E084
:1004900090E002C0880F991F6A95E2F7822B87BB14
:1004A00080E0089527B381E090E002C0880F991F93
:1004B0006A95E2F78095822387BB80E008954130FA
:1004C00061F424B381E090E002C0880F991F6A951F
:1004D000E2F7822B84BB80E0089524B381E090E0B2
:1004E00002C0880F991F6A95E2F78095822384BB2A
:1004F00080E00895413061F421B381E090E002C0D2
:10050000880F991F6A95E2F7822B81BB80E00895DE
:1005100021B381E090E002C0880F991F6A95E2F74D
:100520008095822381BB80E0089581E0089582E078
:10053000089583E0089580E00895683008F07BC056
:10054000843008F07AC0423008F079C0813011F16F
:1005500030F08230D1F1833009F452C072C04130A2
:1005600061F42BB381E090E002C0880F991F6A9577
:10057000E2F7822B8BBB80E008952BB381E090E003
:1005800002C0880F991F6A95E2F7809582238BBB82
:1005900080E00895413061F428B381E090E002C02A
:1005A000880F991F6A95E2F7822B88BB80E0089537
:1005B00028B381E090E002C0880F991F6A95E2F7A6
:1005C0008095822388BB80E00895413061F425B393
:1005D00081E090E002C0880F991F6A95E2F7822BB4
:1005E00085BB80E0089525B381E090E002C0880FCC
:1005F000991F6A95E2F78095822385BB80E0089574
:10060000413061F422B381E090E002C0880F991F6D
:100610006A95E2F7822B82BB80E0089522B381E0E5
:1006200090E002C0880F991F6A95E2F780958223B7
:1006300082BB80E0089581E0089582E0089583E020
:10064000089580E008954532510520F4423010F0BD
:100650000C942E03FB011082CB010895BB274A3076
:1006600031F4992322F4BDE2909581959F4F0C942B
:100670003A03BB27FB015527AA27880F991FAA1FFA
:10068000A41710F0A41B83955051B9F7A05DAA33AD
:1006900008F0A95DA193009779F7B111B193119278
:1006A000CB010C945303DC01FC01672F719177237C
:1006B000E1F7329704C07C916D9370836291AE171D
:0A06C000BF07C8F30895F894FFCFB8
:0E06CA004144432056616C7565203D200000C0
:00000001FF
