S01100004156525465737465722E73726563B3
S11300000C942A000C9451000C943C000C943C0079
S11300100C943C000C943C000C943C000C943C006C
S11300200C943C000C943C000C943C000C943C005C
S11300300C943C000C943C000C943C000C943C004C
S11300400C943C000C943C000C943C000C943C003C
S11300500C943C0011241FBECFE5D8E0DEBFCDBF19
S113006020E0A0E6B0E001C01D92A036B207E1F79F
S11300700E943E000C9467020C94000060E082E051
S11300800E94950060E082E00E94A20062E083E0AA
S11300900E94770062E083E00E9484000E94BB001B
S11300A0FFCF1F920F920FB60F9211242F933F93FD
S11300B04F935F936F937F938F939F93AF93BF936C
S11300C0EF93FF9360E082E00E94AF00FF91EF9115
S11300D0BF91AF919F918F917F916F915F914F915C
S11300E03F912F910F900FBE0F901F90189568307D
S11300F038F4843038F440E00E94D30080E008955E
S113010081E0089582E00895CF93DF93D82FC62F1E
S1130110683020F4843010F40E9421026C2F8D2F5B
S11301200E942102DF91CF910895683038F4843021
S113013038F441E00E94D30080E0089581E00895FE
S113014082E00895683038F4843038F440E00E9446
S1130150590180E0089581E0089582E008956830AF
S113016030F4843030F40E94DF0180E0089581E0AF
S1130170089582E008958BB780648BBF40E062E00D
S113018083E00E94D30085B7826085BF85B7816014
S113019085BF8BB78F778BBF8BB78F7D8BBF8FB7A7
S11301A080688FBF0895683008F07BC0843008F001
S11301B07AC0423008F079C0813011F130F08230D9
S11301C0D1F1833009F452C072C0413061F42AB3D2
S11301D081E090E002C0880F991F6A95E2F7822BB4
S11301E08ABB80E008952AB381E090E002C0880FC2
S11301F0991F6A95E2F7809582238ABB80E008956F
S1130200413061F427B381E090E002C0880F991F68
S11302106A95E2F7822B87BB80E0089527B381E0DB
S113022090E002C0880F991F6A95E2F780958223B7
S113023087BB80E00895413061F424B381E090E00D
S113024002C0880F991F6A95E2F7822B84BB80E075
S1130250089524B381E090E002C0880F991F6A9545
S1130260E2F78095822384BB80E00895413061F4F5
S113027021B381E090E002C0880F991F6A95E2F7EC
S1130280822B81BB80E0089521B381E090E002C01D
S1130290880F991F6A95E2F78095822381BB80E0DD
S11302A0089581E0089582E0089583E0089580E050
S11302B00895683008F07BC0843008F07AC042307A
S11302C008F079C0813011F130F08230D1F18330FF
S11302D009F452C072C0413061F42BB381E090E064
S11302E002C0880F991F6A95E2F7822B8BBB80E0CE
S11302F008952BB381E090E002C0880F991F6A959E
S1130300E2F7809582238BBB80E00895413061F44D
S113031028B381E090E002C0880F991F6A95E2F744
S1130320822B88BB80E0089528B381E090E002C06E
S1130330880F991F6A95E2F78095822388BB80E035
S11303400895413061F425B381E090E002C0880F44
S1130350991F6A95E2F7822B85BB80E0089525B347
S113036081E090E002C0880F991F6A95E2F78095BA
S1130370822385BB80E00895413061F422B381E09B
S113038090E002C0880F991F6A95E2F7822B82BB26
S113039080E0089522B381E090E002C0880F991FA5
S11303A06A95E2F78095822382BB80E0089581E01C
S11303B0089582E0089583E0089580E00895683008
S11303C0D0F58430D0F5813091F028F08230D9F026
S11303D0833029F134C02BB381E090E002C0880F50
S11303E0991F6A95E2F782278BBB80E0089528B3B2
S11303F081E090E002C0880F991F6A95E2F7822796
S113040088BB80E0089525B381E090E002C0880FA6
S1130410991F6A95E2F7822785BB80E0089522B38D
S113042081E090E002C0880F991F6A95E2F7822765
S113043082BB80E0089581E0089582E0089580E021
S113044008956830B0F58430B0F5813089F028F033
S11304508230C9F0833011F130C089B390E002C01A
S1130460959587956A95E2F780FF29C081E0089504
S113047086B390E002C0959587956A95E2F780FF70
S113048020C081E0089583B390E002C095958795DC
S11304906A95E2F780FF17C081E0089580B390E089
S11304A002C0959587956A95E2F780FF0EC081E0BA
S11304B0089581E0089582E0089580E0089580E041
S11304C0089580E0089580E0089580E00895F89408
S10504D0FFCF58
S9030000FC
